{
  "contractName": "product",
  "abi": [
    {
      "inputs": [
        {
          "internalType": "uint256",
          "name": "",
          "type": "uint256"
        }
      ],
      "name": "productItems",
      "outputs": [
        {
          "internalType": "uint256",
          "name": "productId",
          "type": "uint256"
        },
        {
          "internalType": "bytes32",
          "name": "productSN",
          "type": "bytes32"
        },
        {
          "internalType": "bytes32",
          "name": "productName",
          "type": "bytes32"
        },
        {
          "internalType": "bytes32",
          "name": "productBrand",
          "type": "bytes32"
        },
        {
          "internalType": "uint256",
          "name": "productPrice",
          "type": "uint256"
        },
        {
          "internalType": "bytes32",
          "name": "productStatus",
          "type": "bytes32"
        },
        {
          "internalType": "uint256",
          "name": "mfgDate",
          "type": "uint256"
        },
        {
          "internalType": "uint256",
          "name": "saleDate",
          "type": "uint256"
        },
        {
          "internalType": "bool",
          "name": "isSuspicious",
          "type": "bool"
        },
        {
          "internalType": "string",
          "name": "mfgLocation",
          "type": "string"
        },
        {
          "internalType": "string",
          "name": "purchaseLocation",
          "type": "string"
        }
      ],
      "stateMutability": "view",
      "type": "function",
      "constant": true
    },
    {
      "inputs": [
        {
          "internalType": "bytes32",
          "name": "",
          "type": "bytes32"
        }
      ],
      "name": "productMap",
      "outputs": [
        {
          "internalType": "uint256",
          "name": "",
          "type": "uint256"
        }
      ],
      "stateMutability": "view",
      "type": "function",
      "constant": true
    },
    {
      "inputs": [
        {
          "internalType": "bytes32",
          "name": "",
          "type": "bytes32"
        },
        {
          "internalType": "uint256",
          "name": "",
          "type": "uint256"
        }
      ],
      "name": "productScans",
      "outputs": [
        {
          "internalType": "uint256",
          "name": "timestamp",
          "type": "uint256"
        },
        {
          "internalType": "string",
          "name": "location",
          "type": "string"
        }
      ],
      "stateMutability": "view",
      "type": "function",
      "constant": true
    },
    {
      "inputs": [
        {
          "internalType": "bytes32",
          "name": "",
          "type": "bytes32"
        }
      ],
      "name": "productsForSale",
      "outputs": [
        {
          "internalType": "bytes32",
          "name": "",
          "type": "bytes32"
        }
      ],
      "stateMutability": "view",
      "type": "function",
      "constant": true
    },
    {
      "inputs": [
        {
          "internalType": "bytes32",
          "name": "",
          "type": "bytes32"
        }
      ],
      "name": "productsManufactured",
      "outputs": [
        {
          "internalType": "bytes32",
          "name": "",
          "type": "bytes32"
        }
      ],
      "stateMutability": "view",
      "type": "function",
      "constant": true
    },
    {
      "inputs": [
        {
          "internalType": "bytes32",
          "name": "",
          "type": "bytes32"
        }
      ],
      "name": "productsSold",
      "outputs": [
        {
          "internalType": "bytes32",
          "name": "",
          "type": "bytes32"
        }
      ],
      "stateMutability": "view",
      "type": "function",
      "constant": true
    },
    {
      "inputs": [
        {
          "internalType": "bytes32",
          "name": "",
          "type": "bytes32"
        },
        {
          "internalType": "uint256",
          "name": "",
          "type": "uint256"
        }
      ],
      "name": "productsWithConsumer",
      "outputs": [
        {
          "internalType": "bytes32",
          "name": "",
          "type": "bytes32"
        }
      ],
      "stateMutability": "view",
      "type": "function",
      "constant": true
    },
    {
      "inputs": [
        {
          "internalType": "bytes32",
          "name": "",
          "type": "bytes32"
        },
        {
          "internalType": "uint256",
          "name": "",
          "type": "uint256"
        }
      ],
      "name": "productsWithSeller",
      "outputs": [
        {
          "internalType": "bytes32",
          "name": "",
          "type": "bytes32"
        }
      ],
      "stateMutability": "view",
      "type": "function",
      "constant": true
    },
    {
      "inputs": [
        {
          "internalType": "uint256",
          "name": "",
          "type": "uint256"
        }
      ],
      "name": "sellers",
      "outputs": [
        {
          "internalType": "uint256",
          "name": "sellerId",
          "type": "uint256"
        },
        {
          "internalType": "bytes32",
          "name": "sellerName",
          "type": "bytes32"
        },
        {
          "internalType": "bytes32",
          "name": "sellerBrand",
          "type": "bytes32"
        },
        {
          "internalType": "bytes32",
          "name": "sellerCode",
          "type": "bytes32"
        },
        {
          "internalType": "uint256",
          "name": "sellerNum",
          "type": "uint256"
        },
        {
          "internalType": "bytes32",
          "name": "sellerManager",
          "type": "bytes32"
        },
        {
          "internalType": "bytes32",
          "name": "sellerAddress",
          "type": "bytes32"
        }
      ],
      "stateMutability": "view",
      "type": "function",
      "constant": true
    },
    {
      "inputs": [
        {
          "internalType": "bytes32",
          "name": "",
          "type": "bytes32"
        },
        {
          "internalType": "uint256",
          "name": "",
          "type": "uint256"
        }
      ],
      "name": "sellersWithManufacturer",
      "outputs": [
        {
          "internalType": "bytes32",
          "name": "",
          "type": "bytes32"
        }
      ],
      "stateMutability": "view",
      "type": "function",
      "constant": true
    },
    {
      "inputs": [
        {
          "internalType": "bytes32",
          "name": "_manufacturerId",
          "type": "bytes32"
        },
        {
          "internalType": "bytes32",
          "name": "_sellerName",
          "type": "bytes32"
        },
        {
          "internalType": "bytes32",
          "name": "_sellerBrand",
          "type": "bytes32"
        },
        {
          "internalType": "bytes32",
          "name": "_sellerCode",
          "type": "bytes32"
        },
        {
          "internalType": "uint256",
          "name": "_sellerNum",
          "type": "uint256"
        },
        {
          "internalType": "bytes32",
          "name": "_sellerManager",
          "type": "bytes32"
        },
        {
          "internalType": "bytes32",
          "name": "_sellerAddress",
          "type": "bytes32"
        }
      ],
      "name": "addSeller",
      "outputs": [],
      "stateMutability": "nonpayable",
      "type": "function"
    },
    {
      "inputs": [],
      "name": "viewSellers",
      "outputs": [
        {
          "internalType": "uint256[]",
          "name": "",
          "type": "uint256[]"
        },
        {
          "internalType": "bytes32[]",
          "name": "",
          "type": "bytes32[]"
        },
        {
          "internalType": "bytes32[]",
          "name": "",
          "type": "bytes32[]"
        },
        {
          "internalType": "bytes32[]",
          "name": "",
          "type": "bytes32[]"
        },
        {
          "internalType": "uint256[]",
          "name": "",
          "type": "uint256[]"
        },
        {
          "internalType": "bytes32[]",
          "name": "",
          "type": "bytes32[]"
        },
        {
          "internalType": "bytes32[]",
          "name": "",
          "type": "bytes32[]"
        }
      ],
      "stateMutability": "view",
      "type": "function",
      "constant": true
    },
    {
      "inputs": [
        {
          "internalType": "bytes32",
          "name": "_manufactuerID",
          "type": "bytes32"
        },
        {
          "internalType": "bytes32",
          "name": "_productName",
          "type": "bytes32"
        },
        {
          "internalType": "bytes32",
          "name": "_productSN",
          "type": "bytes32"
        },
        {
          "internalType": "bytes32",
          "name": "_productBrand",
          "type": "bytes32"
        },
        {
          "internalType": "uint256",
          "name": "_productPrice",
          "type": "uint256"
        },
        {
          "internalType": "string",
          "name": "_mfgLocation",
          "type": "string"
        }
      ],
      "name": "addProduct",
      "outputs": [],
      "stateMutability": "nonpayable",
      "type": "function"
    },
    {
      "inputs": [],
      "name": "viewProductItems",
      "outputs": [
        {
          "internalType": "uint256[]",
          "name": "",
          "type": "uint256[]"
        },
        {
          "internalType": "bytes32[]",
          "name": "",
          "type": "bytes32[]"
        },
        {
          "internalType": "bytes32[]",
          "name": "",
          "type": "bytes32[]"
        },
        {
          "internalType": "bytes32[]",
          "name": "",
          "type": "bytes32[]"
        },
        {
          "internalType": "uint256[]",
          "name": "",
          "type": "uint256[]"
        },
        {
          "internalType": "bytes32[]",
          "name": "",
          "type": "bytes32[]"
        }
      ],
      "stateMutability": "view",
      "type": "function",
      "constant": true
    },
    {
      "inputs": [
        {
          "internalType": "bytes32",
          "name": "_productSN",
          "type": "bytes32"
        },
        {
          "internalType": "bytes32",
          "name": "_sellerCode",
          "type": "bytes32"
        }
      ],
      "name": "manufacturerSellProduct",
      "outputs": [],
      "stateMutability": "nonpayable",
      "type": "function"
    },
    {
      "inputs": [
        {
          "internalType": "bytes32",
          "name": "_productSN",
          "type": "bytes32"
        },
        {
          "internalType": "bytes32",
          "name": "_consumerCode",
          "type": "bytes32"
        },
        {
          "internalType": "string",
          "name": "_purchaseLocation",
          "type": "string"
        }
      ],
      "name": "sellerSellProduct",
      "outputs": [],
      "stateMutability": "nonpayable",
      "type": "function"
    },
    {
      "inputs": [
        {
          "internalType": "bytes32",
          "name": "_sellerCode",
          "type": "bytes32"
        }
      ],
      "name": "queryProductsList",
      "outputs": [
        {
          "internalType": "uint256[]",
          "name": "",
          "type": "uint256[]"
        },
        {
          "internalType": "bytes32[]",
          "name": "",
          "type": "bytes32[]"
        },
        {
          "internalType": "bytes32[]",
          "name": "",
          "type": "bytes32[]"
        },
        {
          "internalType": "bytes32[]",
          "name": "",
          "type": "bytes32[]"
        },
        {
          "internalType": "uint256[]",
          "name": "",
          "type": "uint256[]"
        },
        {
          "internalType": "bytes32[]",
          "name": "",
          "type": "bytes32[]"
        }
      ],
      "stateMutability": "view",
      "type": "function",
      "constant": true
    },
    {
      "inputs": [
        {
          "internalType": "bytes32",
          "name": "_manufacturerCode",
          "type": "bytes32"
        }
      ],
      "name": "querySellersList",
      "outputs": [
        {
          "internalType": "uint256[]",
          "name": "",
          "type": "uint256[]"
        },
        {
          "internalType": "bytes32[]",
          "name": "",
          "type": "bytes32[]"
        },
        {
          "internalType": "bytes32[]",
          "name": "",
          "type": "bytes32[]"
        },
        {
          "internalType": "bytes32[]",
          "name": "",
          "type": "bytes32[]"
        },
        {
          "internalType": "uint256[]",
          "name": "",
          "type": "uint256[]"
        },
        {
          "internalType": "bytes32[]",
          "name": "",
          "type": "bytes32[]"
        },
        {
          "internalType": "bytes32[]",
          "name": "",
          "type": "bytes32[]"
        }
      ],
      "stateMutability": "view",
      "type": "function",
      "constant": true
    },
    {
      "inputs": [
        {
          "internalType": "bytes32",
          "name": "_consumerCode",
          "type": "bytes32"
        }
      ],
      "name": "getPurchaseHistory",
      "outputs": [
        {
          "internalType": "bytes32[]",
          "name": "",
          "type": "bytes32[]"
        },
        {
          "internalType": "bytes32[]",
          "name": "",
          "type": "bytes32[]"
        },
        {
          "internalType": "bytes32[]",
          "name": "",
          "type": "bytes32[]"
        }
      ],
      "stateMutability": "view",
      "type": "function",
      "constant": true
    },
    {
      "inputs": [
        {
          "internalType": "bytes32",
          "name": "_productSN",
          "type": "bytes32"
        },
        {
          "internalType": "string",
          "name": "_location",
          "type": "string"
        }
      ],
      "name": "recordScan",
      "outputs": [],
      "stateMutability": "nonpayable",
      "type": "function"
    },
    {
      "inputs": [
        {
          "internalType": "bytes32",
          "name": "_productSN",
          "type": "bytes32"
        }
      ],
      "name": "getScanHistory",
      "outputs": [
        {
          "internalType": "uint256[]",
          "name": "",
          "type": "uint256[]"
        },
        {
          "internalType": "string[]",
          "name": "",
          "type": "string[]"
        }
      ],
      "stateMutability": "view",
      "type": "function",
      "constant": true
    },
    {
      "inputs": [
        {
          "internalType": "bytes32",
          "name": "_productSN",
          "type": "bytes32"
        },
        {
          "internalType": "bytes32",
          "name": "_consumerCode",
          "type": "bytes32"
        }
      ],
      "name": "verifyProduct",
      "outputs": [
        {
          "internalType": "bool",
          "name": "",
          "type": "bool"
        },
        {
          "internalType": "bool",
          "name": "",
          "type": "bool"
        },
        {
          "internalType": "uint256",
          "name": "",
          "type": "uint256"
        },
        {
          "internalType": "bool",
          "name": "",
          "type": "bool"
        },
        {
          "internalType": "bool",
          "name": "",
          "type": "bool"
        },
        {
          "internalType": "string",
          "name": "",
          "type": "string"
        },
        {
          "internalType": "string",
          "name": "",
          "type": "string"
        },
        {
          "internalType": "uint256",
          "name": "",
          "type": "uint256"
        },
        {
          "internalType": "uint256",
          "name": "",
          "type": "uint256"
        }
      ],
      "stateMutability": "view",
      "type": "function",
      "constant": true
    }
  ],
  "bytecode": "0x608060405234801561001057600080fd5b506134a7806100206000396000f3fe608060405234801561001057600080fd5b50600436106101425760003560e01c80639cd777dd116100b8578063caaf27511161007c578063caaf275114610409578063cd4f6a2e14610443578063cee26ed514610473578063e262113f146104a9578063e3d326a3146104d9578063fb239237146104f557610142565b80639cd777dd146103165780639ea4695d14610346578063a090f47c14610378578063c20805b4146103a8578063ca59eace146103d857610142565b8063344b5d511161010a578063344b5d51146102105780634ac79d7b146102485780634b993001146102645780634f2792b1146102945780638577a701146102c557806392162bc4146102e157610142565b8063032f95e614610147578063100b6ba21461016b578063130aa81f1461019b5780631836bd4b146101d15780631b3658c8146101f4575b600080fd5b61014f610511565b6040516101629796959493929190612846565b60405180910390f35b61018560048036038101906101809190612926565b6108fe565b6040516101929190612962565b60405180910390f35b6101b560048036038101906101b09190612926565b610916565b6040516101c89796959493929190612846565b60405180910390f35b6101d9610dd9565b6040516101eb9695949392919061297d565b60405180910390f35b61020e60048036038101906102099190612a34565b611141565b005b61022a60048036038101906102259190612ad6565b61122d565b60405161023f99989796959493929190612bca565b60405180910390f35b610262600480360381019061025d9190612d9a565b611469565b005b61027e60048036038101906102799190612e43565b611601565b60405161028b9190612e92565b60405180910390f35b6102ae60048036038101906102a99190612e43565b611632565b6040516102bc929190612ead565b60405180910390f35b6102df60048036038101906102da9190612ad6565b6116fb565b005b6102fb60048036038101906102f69190612926565b611751565b60405161030d9695949392919061297d565b60405180910390f35b610330600480360381019061032b9190612e43565b611b8a565b60405161033d9190612e92565b60405180910390f35b610360600480360381019061035b9190612926565b611bbb565b60405161036f93929190612edd565b60405180910390f35b610392600480360381019061038d9190612926565b611d8f565b60405161039f9190612e92565b60405180910390f35b6103c260048036038101906103bd9190612926565b611da7565b6040516103cf9190612e92565b60405180910390f35b6103f260048036038101906103ed9190612926565b611dbf565b604051610400929190613035565b60405180910390f35b610423600480360381019061041e919061306c565b611fdc565b60405161043a9b9a99989796959493929190613099565b60405180910390f35b61045d60048036038101906104589190612926565b612153565b60405161046a9190612e92565b60405180910390f35b61048d6004803603810190610488919061306c565b61216b565b6040516104a09796959493929190613152565b60405180910390f35b6104c360048036038101906104be9190612e43565b6121ad565b6040516104d09190612e92565b60405180910390f35b6104f360048036038101906104ee91906131c1565b6121de565b005b61050f600480360381019061050a9190613230565b61232f565b005b60608060608060608060606000805467ffffffffffffffff81111561053957610538612c6f565b5b6040519080825280602002602001820160405280156105675781602001602082028036833780820191505090505b5090506000805467ffffffffffffffff81111561058757610586612c6f565b5b6040519080825280602002602001820160405280156105b55781602001602082028036833780820191505090505b5090506000805467ffffffffffffffff8111156105d5576105d4612c6f565b5b6040519080825280602002602001820160405280156106035781602001602082028036833780820191505090505b5090506000805467ffffffffffffffff81111561062357610622612c6f565b5b6040519080825280602002602001820160405280156106515781602001602082028036833780820191505090505b5090506000805467ffffffffffffffff81111561067157610670612c6f565b5b60405190808252806020026020018201604052801561069f5781602001602082028036833780820191505090505b5090506000805467ffffffffffffffff8111156106bf576106be612c6f565b5b6040519080825280602002602001820160405280156106ed5781602001602082028036833780820191505090505b5090506000805467ffffffffffffffff81111561070d5761070c612c6f565b5b60405190808252806020026020018201604052801561073b5781602001602082028036833780820191505090505b50905060005b6000548110156108d85760026000828152602001908152602001600020600001548882815181106107755761077461328c565b5b60200260200101818152505060026000828152602001908152602001600020600101548782815181106107ab576107aa61328c565b5b60200260200101818152505060026000828152602001908152602001600020600201548682815181106107e1576107e061328c565b5b60200260200101818152505060026000828152602001908152602001600020600301548582815181106108175761081661328c565b5b602002602001018181525050600260008281526020019081526020016000206004015484828151811061084d5761084c61328c565b5b60200260200101818152505060026000828152602001908152602001600020600501548382815181106108835761088261328c565b5b60200260200101818152505060026000828152602001908152602001600020600601548282815181106108b9576108b861328c565b5b60200260200101818152505080806108d0906132ea565b915050610741565b50868686868686869d509d509d509d509d509d509d505050505050505090919293949596565b60046020528060005260406000206000915090505481565b60608060608060608060606000600a60008a815260200190815260200160002080548060200260200160405190810160405280929190818152602001828054801561098057602002820191906000526020600020905b81548152602001906001019080831161096c575b50505050509050600080805467ffffffffffffffff8111156109a5576109a4612c6f565b5b6040519080825280602002602001820160405280156109d35781602001602082028036833780820191505090505b5090506000805467ffffffffffffffff8111156109f3576109f2612c6f565b5b604051908082528060200260200182016040528015610a215781602001602082028036833780820191505090505b5090506000805467ffffffffffffffff811115610a4157610a40612c6f565b5b604051908082528060200260200182016040528015610a6f5781602001602082028036833780820191505090505b5090506000805467ffffffffffffffff811115610a8f57610a8e612c6f565b5b604051908082528060200260200182016040528015610abd5781602001602082028036833780820191505090505b5090506000805467ffffffffffffffff811115610add57610adc612c6f565b5b604051908082528060200260200182016040528015610b0b5781602001602082028036833780820191505090505b5090506000805467ffffffffffffffff811115610b2b57610b2a612c6f565b5b604051908082528060200260200182016040528015610b595781602001602082028036833780820191505090505b5090506000805467ffffffffffffffff811115610b7957610b78612c6f565b5b604051908082528060200260200182016040528015610ba75781602001602082028036833780820191505090505b50905060005b600054811015610daf5760005b8a51811015610d9b578a8181518110610bd657610bd561328c565b5b602002602001015160026000848152602001908152602001600020600301541415610d88576002600083815260200190815260200160002060000154898b81518110610c2557610c2461328c565b5b6020026020010181815250506002600083815260200190815260200160002060010154888b81518110610c5b57610c5a61328c565b5b6020026020010181815250506002600083815260200190815260200160002060020154878b81518110610c9157610c9061328c565b5b6020026020010181815250506002600083815260200190815260200160002060030154868b81518110610cc757610cc661328c565b5b6020026020010181815250506002600083815260200190815260200160002060040154858b81518110610cfd57610cfc61328c565b5b6020026020010181815250506002600083815260200190815260200160002060050154848b81518110610d3357610d3261328c565b5b6020026020010181815250506002600083815260200190815260200160002060060154838b81518110610d6957610d6861328c565b5b6020026020010181815250508980610d80906132ea565b9a5050610d9b565b8080610d93906132ea565b915050610bba565b508080610da7906132ea565b915050610bad565b50868686868686869f509f509f509f509f509f509f50505050505050505050919395979092949650565b606080606080606080600060015467ffffffffffffffff811115610e0057610dff612c6f565b5b604051908082528060200260200182016040528015610e2e5781602001602082028036833780820191505090505b509050600060015467ffffffffffffffff811115610e4f57610e4e612c6f565b5b604051908082528060200260200182016040528015610e7d5781602001602082028036833780820191505090505b509050600060015467ffffffffffffffff811115610e9e57610e9d612c6f565b5b604051908082528060200260200182016040528015610ecc5781602001602082028036833780820191505090505b509050600060015467ffffffffffffffff811115610eed57610eec612c6f565b5b604051908082528060200260200182016040528015610f1b5781602001602082028036833780820191505090505b509050600060015467ffffffffffffffff811115610f3c57610f3b612c6f565b5b604051908082528060200260200182016040528015610f6a5781602001602082028036833780820191505090505b509050600060015467ffffffffffffffff811115610f8b57610f8a612c6f565b5b604051908082528060200260200182016040528015610fb95781602001602082028036833780820191505090505b50905060005b600154811015611120576003600082815260200190815260200160002060000154878281518110610ff357610ff261328c565b5b60200260200101818152505060036000828152602001908152602001600020600101548682815181106110295761102861328c565b5b602002602001018181525050600360008281526020019081526020016000206002015485828151811061105f5761105e61328c565b5b60200260200101818152505060036000828152602001908152602001600020600301548482815181106110955761109461328c565b5b60200260200101818152505060036000828152602001908152602001600020600401548382815181106110cb576110ca61328c565b5b60200260200101818152505060036000828152602001908152602001600020600501548282815181106111015761110061328c565b5b6020026020010181815250508080611118906132ea565b915050610fbf565b508585858585859b509b509b509b509b509b50505050505050909192939495565b6040518060e001604052806000548152602001878152602001868152602001858152602001848152602001838152602001828152506002600080548152602001908152602001600020600082015181600001556020820151816001015560408201518160020155606082015181600301556080820151816004015560a0820151816005015560c082015181600601559050506000808154809291906111e5906132ea565b9190505550600a600088815260200190815260200160002084908060018154018082558091505060019003906000526020600020016000909190919091505550505050505050565b60008060008060006060806000806000600460008d81526020019081526020016000205490508b6003600083815260200190815260200160002060010154148b600760008f81526020019081526020016000205414600b60008f8152602001908152602001600020805490506003600085815260200190815260200160002060080160009054906101000a900460ff1660006003600087815260200190815260200160002060070154116003600087815260200190815260200160002060090160036000888152602001908152602001600020600a016003600089815260200190815260200160002060060154600360008a81526020019081526020016000206007015483805461133d90613362565b80601f016020809104026020016040519081016040528092919081815260200182805461136990613362565b80156113b65780601f1061138b576101008083540402835291602001916113b6565b820191906000526020600020905b81548152906001019060200180831161139957829003601f168201915b505050505093508280546113c990613362565b80601f01602080910402602001604051908101604052809291908181526020018280546113f590613362565b80156114425780601f1061141757610100808354040283529160200191611442565b820191906000526020600020905b81548152906001019060200180831161142557829003601f168201915b50505050509250995099509950995099509950995099509950509295985092959850929598565b60405180610160016040528060015481526020018581526020018681526020018481526020018381526020017f417661696c61626c65000000000000000000000000000000000000000000000081526020014281526020016000815260200160001515815260200182815260200160405180602001604052806000815250815250600360006001548152602001908152602001600020600082015181600001556020820151816001015560408201518160020155606082015181600301556080820151816004015560a0820151816005015560c0820151816006015560e082015181600701556101008201518160080160006101000a81548160ff02191690831515021790555061012082015181600901908051906020019061158d929190612613565b5061014082015181600a0190805190602001906115ab929190612613565b509050506001546004600086815260200190815260200160002081905550600160008154809291906115dc906132ea565b9190505550856005600086815260200190815260200160002081905550505050505050565b6008602052816000526040600020818154811061161d57600080fd5b90600052602060002001600091509150505481565b600b602052816000526040600020818154811061164e57600080fd5b90600052602060002090600202016000915091505080600001549080600101805461167890613362565b80601f01602080910402602001604051908101604052809291908181526020018280546116a490613362565b80156116f15780601f106116c6576101008083540402835291602001916116f1565b820191906000526020600020905b8154815290600101906020018083116116d457829003601f168201915b5050505050905082565b600860008281526020019081526020016000208290806001815401808255809150506001900390600052602060002001600090919091909150558060066000848152602001908152602001600020819055505050565b6060806060806060806000600860008981526020019081526020016000208054806020026020016040519081016040528092919081815260200182805480156117b957602002820191906000526020600020905b8154815260200190600101908083116117a5575b5050505050905060008060015467ffffffffffffffff8111156117df576117de612c6f565b5b60405190808252806020026020018201604052801561180d5781602001602082028036833780820191505090505b509050600060015467ffffffffffffffff81111561182e5761182d612c6f565b5b60405190808252806020026020018201604052801561185c5781602001602082028036833780820191505090505b509050600060015467ffffffffffffffff81111561187d5761187c612c6f565b5b6040519080825280602002602001820160405280156118ab5781602001602082028036833780820191505090505b509050600060015467ffffffffffffffff8111156118cc576118cb612c6f565b5b6040519080825280602002602001820160405280156118fa5781602001602082028036833780820191505090505b509050600060015467ffffffffffffffff81111561191b5761191a612c6f565b5b6040519080825280602002602001820160405280156119495781602001602082028036833780820191505090505b509050600060015467ffffffffffffffff81111561196a57611969612c6f565b5b6040519080825280602002602001820160405280156119985781602001602082028036833780820191505090505b50905060005b600154811015611b665760005b8951811015611b52578981815181106119c7576119c661328c565b5b602002602001015160036000848152602001908152602001600020600101541415611b3f576003600083815260200190815260200160002060000154888a81518110611a1657611a1561328c565b5b6020026020010181815250506003600083815260200190815260200160002060010154878a81518110611a4c57611a4b61328c565b5b6020026020010181815250506003600083815260200190815260200160002060020154868a81518110611a8257611a8161328c565b5b6020026020010181815250506003600083815260200190815260200160002060030154858a81518110611ab857611ab761328c565b5b6020026020010181815250506003600083815260200190815260200160002060040154848a81518110611aee57611aed61328c565b5b6020026020010181815250506003600083815260200190815260200160002060050154838a81518110611b2457611b2361328c565b5b6020026020010181815250508880611b3b906132ea565b9950505b8080611b4a906132ea565b9150506119ab565b508080611b5e906132ea565b91505061199e565b508585858585859d509d509d509d509d509d50505050505050505091939550919395565b60096020528160005260406000208181548110611ba657600080fd5b90600052602060002001600091509150505481565b6060806060600060096000868152602001908152602001600020805480602002602001604051908101604052809291908181526020018280548015611c1f57602002820191906000526020600020905b815481526020019060010190808311611c0b575b505050505090506000815167ffffffffffffffff811115611c4357611c42612c6f565b5b604051908082528060200260200182016040528015611c715781602001602082028036833780820191505090505b5090506000825167ffffffffffffffff811115611c9157611c90612c6f565b5b604051908082528060200260200182016040528015611cbf5781602001602082028036833780820191505090505b50905060005b8351811015611d7b5760066000858381518110611ce557611ce461328c565b5b6020026020010151815260200190815260200160002054838281518110611d0f57611d0e61328c565b5b60200260200101818152505060056000858381518110611d3257611d3161328c565b5b6020026020010151815260200190815260200160002054828281518110611d5c57611d5b61328c565b5b6020026020010181815250508080611d73906132ea565b915050611cc5565b508282829550955095505050509193909250565b60066020528060005260406000206000915090505481565b60056020528060005260406000206000915090505481565b6060806000600b600085815260200190815260200160002080549050905060008167ffffffffffffffff811115611df957611df8612c6f565b5b604051908082528060200260200182016040528015611e275781602001602082028036833780820191505090505b50905060008267ffffffffffffffff811115611e4657611e45612c6f565b5b604051908082528060200260200182016040528015611e7957816020015b6060815260200190600190039081611e645790505b50905060005b83811015611fcd57600b60008881526020019081526020016000208181548110611eac57611eab61328c565b5b906000526020600020906002020160000154838281518110611ed157611ed061328c565b5b602002602001018181525050600b60008881526020019081526020016000208181548110611f0257611f0161328c565b5b90600052602060002090600202016001018054611f1e90613362565b80601f0160208091040260200160405190810160405280929190818152602001828054611f4a90613362565b8015611f975780601f10611f6c57610100808354040283529160200191611f97565b820191906000526020600020905b815481529060010190602001808311611f7a57829003601f168201915b5050505050828281518110611faf57611fae61328c565b5b60200260200101819052508080611fc5906132ea565b915050611e7f565b50818194509450505050915091565b60036020528060005260406000206000915090508060000154908060010154908060020154908060030154908060040154908060050154908060060154908060070154908060080160009054906101000a900460ff169080600901805461204290613362565b80601f016020809104026020016040519081016040528092919081815260200182805461206e90613362565b80156120bb5780601f10612090576101008083540402835291602001916120bb565b820191906000526020600020905b81548152906001019060200180831161209e57829003601f168201915b50505050509080600a0180546120d090613362565b80601f01602080910402602001604051908101604052809291908181526020018280546120fc90613362565b80156121495780601f1061211e57610100808354040283529160200191612149565b820191906000526020600020905b81548152906001019060200180831161212c57829003601f168201915b505050505090508b565b60076020528060005260406000206000915090505481565b60026020528060005260406000206000915090508060000154908060010154908060020154908060030154908060040154908060050154908060060154905087565b600a60205281600052604060002081815481106121c957600080fd5b90600052602060002001600091509150505481565b60006004600085815260200190815260200160002054905083600360008381526020019081526020016000206001015414801561225057507f417661696c61626c6500000000000000000000000000000000000000000000006003600083815260200190815260200160002060050154145b15612329577f4e4100000000000000000000000000000000000000000000000000000000000060036000838152602001908152602001600020600501819055504260036000838152602001908152602001600020600701819055508160036000838152602001908152602001600020600a0190805190602001906122d5929190612613565b50600960008481526020019081526020016000208490806001815401808255809150506001900390600052602060002001600090919091909150558260076000868152602001908152602001600020819055505b50505050565b600060046000848152602001908152602001600020549050826003600083815260200190815260200160002060010154141561260e57600b600084815260200190815260200160002060405180604001604052804281526020018481525090806001815401808255809150506001900390600052602060002090600202016000909190919091506000820151816000015560208201518160010190805190602001906123dc929190612613565b505050600060036000838152602001908152602001600020600701541180156124265750603c60036000838152602001908152602001600020600701546124239190613394565b42115b1561245b5760016003600083815260200190815260200160002060080160006101000a81548160ff0219169083151502179055505b6000600b6000858152602001908152602001600020805490509050600181111561260c576000600b60008681526020019081526020016000206002836124a191906133ea565b815481106124b2576124b161328c565b5b9060005260206000209060020201604051806040016040529081600082015481526020016001820180546124e590613362565b80601f016020809104026020016040519081016040528092919081815260200182805461251190613362565b801561255e5780601f106125335761010080835404028352916020019161255e565b820191906000526020600020905b81548152906001019060200180831161254157829003601f168201915b5050505050815250509050610e1081600001514261257c91906133ea565b101561260a5783604051602001612593919061345a565b6040516020818303038152906040528051906020012081602001516040516020016125be919061345a565b60405160208183030381529060405280519060200120146126095760016003600085815260200190815260200160002060080160006101000a81548160ff0219169083151502179055505b5b505b505b505050565b82805461261f90613362565b90600052602060002090601f0160209004810192826126415760008555612688565b82601f1061265a57805160ff1916838001178555612688565b82800160010185558215612688579182015b8281111561268757825182559160200191906001019061266c565b5b5090506126959190612699565b5090565b5b808211156126b257600081600090555060010161269a565b5090565b600081519050919050565b600082825260208201905092915050565b6000819050602082019050919050565b6000819050919050565b6126f5816126e2565b82525050565b600061270783836126ec565b60208301905092915050565b6000602082019050919050565b600061272b826126b6565b61273581856126c1565b9350612740836126d2565b8060005b8381101561277157815161275888826126fb565b975061276383612713565b925050600181019050612744565b5085935050505092915050565b600081519050919050565b600082825260208201905092915050565b6000819050602082019050919050565b6000819050919050565b6127bd816127aa565b82525050565b60006127cf83836127b4565b60208301905092915050565b6000602082019050919050565b60006127f38261277e565b6127fd8185612789565b93506128088361279a565b8060005b8381101561283957815161282088826127c3565b975061282b836127db565b92505060018101905061280c565b5085935050505092915050565b600060e0820190508181036000830152612860818a612720565b9050818103602083015261287481896127e8565b9050818103604083015261288881886127e8565b9050818103606083015261289c81876127e8565b905081810360808301526128b08186612720565b905081810360a08301526128c481856127e8565b905081810360c08301526128d881846127e8565b905098975050505050505050565b6000604051905090565b600080fd5b600080fd5b612903816127aa565b811461290e57600080fd5b50565b600081359050612920816128fa565b92915050565b60006020828403121561293c5761293b6128f0565b5b600061294a84828501612911565b91505092915050565b61295c816126e2565b82525050565b60006020820190506129776000830184612953565b92915050565b600060c08201905081810360008301526129978189612720565b905081810360208301526129ab81886127e8565b905081810360408301526129bf81876127e8565b905081810360608301526129d381866127e8565b905081810360808301526129e78185612720565b905081810360a08301526129fb81846127e8565b9050979650505050505050565b612a11816126e2565b8114612a1c57600080fd5b50565b600081359050612a2e81612a08565b92915050565b600080600080600080600060e0888a031215612a5357612a526128f0565b5b6000612a618a828b01612911565b9750506020612a728a828b01612911565b9650506040612a838a828b01612911565b9550506060612a948a828b01612911565b9450506080612aa58a828b01612a1f565b93505060a0612ab68a828b01612911565b92505060c0612ac78a828b01612911565b91505092959891949750929550565b60008060408385031215612aed57612aec6128f0565b5b6000612afb85828601612911565b9250506020612b0c85828601612911565b9150509250929050565b60008115159050919050565b612b2b81612b16565b82525050565b600081519050919050565b600082825260208201905092915050565b60005b83811015612b6b578082015181840152602081019050612b50565b83811115612b7a576000848401525b50505050565b6000601f19601f8301169050919050565b6000612b9c82612b31565b612ba68185612b3c565b9350612bb6818560208601612b4d565b612bbf81612b80565b840191505092915050565b600061012082019050612be0600083018c612b22565b612bed602083018b612b22565b612bfa604083018a612953565b612c076060830189612b22565b612c146080830188612b22565b81810360a0830152612c268187612b91565b905081810360c0830152612c3a8186612b91565b9050612c4960e0830185612953565b612c57610100830184612953565b9a9950505050505050505050565b600080fd5b600080fd5b7f4e487b7100000000000000000000000000000000000000000000000000000000600052604160045260246000fd5b612ca782612b80565b810181811067ffffffffffffffff82111715612cc657612cc5612c6f565b5b80604052505050565b6000612cd96128e6565b9050612ce58282612c9e565b919050565b600067ffffffffffffffff821115612d0557612d04612c6f565b5b612d0e82612b80565b9050602081019050919050565b82818337600083830152505050565b6000612d3d612d3884612cea565b612ccf565b905082815260208101848484011115612d5957612d58612c6a565b5b612d64848285612d1b565b509392505050565b600082601f830112612d8157612d80612c65565b5b8135612d91848260208601612d2a565b91505092915050565b60008060008060008060c08789031215612db757612db66128f0565b5b6000612dc589828a01612911565b9650506020612dd689828a01612911565b9550506040612de789828a01612911565b9450506060612df889828a01612911565b9350506080612e0989828a01612a1f565b92505060a087013567ffffffffffffffff811115612e2a57612e296128f5565b5b612e3689828a01612d6c565b9150509295509295509295565b60008060408385031215612e5a57612e596128f0565b5b6000612e6885828601612911565b9250506020612e7985828601612a1f565b9150509250929050565b612e8c816127aa565b82525050565b6000602082019050612ea76000830184612e83565b92915050565b6000604082019050612ec26000830185612953565b8181036020830152612ed48184612b91565b90509392505050565b60006060820190508181036000830152612ef781866127e8565b90508181036020830152612f0b81856127e8565b90508181036040830152612f1f81846127e8565b9050949350505050565b600081519050919050565b600082825260208201905092915050565b6000819050602082019050919050565b600082825260208201905092915050565b6000612f7182612b31565b612f7b8185612f55565b9350612f8b818560208601612b4d565b612f9481612b80565b840191505092915050565b6000612fab8383612f66565b905092915050565b6000602082019050919050565b6000612fcb82612f29565b612fd58185612f34565b935083602082028501612fe785612f45565b8060005b8581101561302357848403895281516130048582612f9f565b945061300f83612fb3565b925060208a01995050600181019050612feb565b50829750879550505050505092915050565b6000604082019050818103600083015261304f8185612720565b905081810360208301526130638184612fc0565b90509392505050565b600060208284031215613082576130816128f0565b5b600061309084828501612a1f565b91505092915050565b6000610160820190506130af600083018e612953565b6130bc602083018d612e83565b6130c9604083018c612e83565b6130d6606083018b612e83565b6130e3608083018a612953565b6130f060a0830189612e83565b6130fd60c0830188612953565b61310a60e0830187612953565b613118610100830186612b22565b81810361012083015261312b8185612b91565b90508181036101408301526131408184612b91565b90509c9b505050505050505050505050565b600060e082019050613167600083018a612953565b6131746020830189612e83565b6131816040830188612e83565b61318e6060830187612e83565b61319b6080830186612953565b6131a860a0830185612e83565b6131b560c0830184612e83565b98975050505050505050565b6000806000606084860312156131da576131d96128f0565b5b60006131e886828701612911565b93505060206131f986828701612911565b925050604084013567ffffffffffffffff81111561321a576132196128f5565b5b61322686828701612d6c565b9150509250925092565b60008060408385031215613247576132466128f0565b5b600061325585828601612911565b925050602083013567ffffffffffffffff811115613276576132756128f5565b5b61328285828601612d6c565b9150509250929050565b7f4e487b7100000000000000000000000000000000000000000000000000000000600052603260045260246000fd5b7f4e487b7100000000000000000000000000000000000000000000000000000000600052601160045260246000fd5b60006132f5826126e2565b91507fffffffffffffffffffffffffffffffffffffffffffffffffffffffffffffffff821415613328576133276132bb565b5b600182019050919050565b7f4e487b7100000000000000000000000000000000000000000000000000000000600052602260045260246000fd5b6000600282049050600182168061337a57607f821691505b6020821081141561338e5761338d613333565b5b50919050565b600061339f826126e2565b91506133aa836126e2565b9250827fffffffffffffffffffffffffffffffffffffffffffffffffffffffffffffffff038211156133df576133de6132bb565b5b828201905092915050565b60006133f5826126e2565b9150613400836126e2565b925082821015613413576134126132bb565b5b828203905092915050565b600081905092915050565b600061343482612b31565b61343e818561341e565b935061344e818560208601612b4d565b80840191505092915050565b60006134668284613429565b91508190509291505056fea264697066735822122066ed127aea2150b5a0044e38cb00a1d28a0be3d3a46c96d890edf533a3f8807164736f6c634300080c0033",
  "immutableReferences": {},
  "source": "pragma solidity ^0.8.12;\r\n\r\ncontract product {\r\n\r\n    uint256 sellerCount;\r\n    uint256 productCount;\r\n\r\n    struct seller{\r\n        uint256 sellerId;\r\n        bytes32 sellerName;\r\n        bytes32 sellerBrand;\r\n        bytes32 sellerCode;\r\n        uint256 sellerNum;\r\n        bytes32 sellerManager;\r\n        bytes32 sellerAddress;\r\n    }\r\n    mapping(uint=>seller) public sellers;\r\n\r\n    struct Scan {\r\n        uint256 timestamp;\r\n        string location;\r\n    }\r\n\r\n    struct productItem{\r\n        uint256 productId;\r\n        bytes32 productSN;\r\n        bytes32 productName;\r\n        bytes32 productBrand;\r\n        uint256 productPrice;\r\n        bytes32 productStatus;\r\n        uint256 mfgDate;\r\n        uint256 saleDate;\r\n        bool isSuspicious;\r\n        string mfgLocation;\r\n        string purchaseLocation;\r\n    }\r\n\r\n    mapping(uint256=>productItem) public productItems;\r\n    mapping(bytes32=>uint256) public productMap;\r\n    mapping(bytes32=>bytes32) public productsManufactured;\r\n    mapping(bytes32=>bytes32) public productsForSale;\r\n    mapping(bytes32=>bytes32) public productsSold;\r\n    mapping(bytes32=>bytes32[]) public productsWithSeller;\r\n    mapping(bytes32=>bytes32[]) public productsWithConsumer;\r\n    mapping(bytes32=>bytes32[]) public sellersWithManufacturer;\r\n    \r\n    mapping(bytes32 => Scan[]) public productScans;\r\n\r\n    //SELLER SECTION\r\n\r\n    function addSeller(bytes32 _manufacturerId, bytes32 _sellerName, bytes32 _sellerBrand, bytes32 _sellerCode,\r\n    uint256 _sellerNum, bytes32 _sellerManager, bytes32 _sellerAddress) public{\r\n        sellers[sellerCount] = seller(sellerCount, _sellerName, _sellerBrand, _sellerCode,\r\n        _sellerNum, _sellerManager, _sellerAddress);\r\n        sellerCount++;\r\n\r\n        sellersWithManufacturer[_manufacturerId].push(_sellerCode);\r\n    }\r\n\r\n\r\n    function viewSellers () public view returns(uint256[] memory, bytes32[] memory, bytes32[] memory, bytes32[] memory, uint256[] memory, bytes32[] memory, bytes32[] memory) {\r\n        uint256[] memory ids = new uint256[](sellerCount);\r\n        bytes32[] memory snames = new bytes32[](sellerCount);\r\n        bytes32[] memory sbrands = new bytes32[](sellerCount);\r\n        bytes32[] memory scodes = new bytes32[](sellerCount);\r\n        uint256[] memory snums = new uint256[](sellerCount);\r\n        bytes32[] memory smanagers = new bytes32[](sellerCount);\r\n        bytes32[] memory saddress = new bytes32[](sellerCount);\r\n        \r\n        for(uint i=0; i<sellerCount; i++){\r\n            ids[i] = sellers[i].sellerId;\r\n            snames[i] = sellers[i].sellerName;\r\n            sbrands[i] = sellers[i].sellerBrand;\r\n            scodes[i] = sellers[i].sellerCode;\r\n            snums[i] = sellers[i].sellerNum;\r\n            smanagers[i] = sellers[i].sellerManager;\r\n            saddress[i] = sellers[i].sellerAddress;\r\n        }\r\n        return(ids, snames, sbrands, scodes, snums, smanagers, saddress);\r\n    }\r\n\r\n    //PRODUCT SECTION\r\n\r\n    function addProduct(bytes32 _manufactuerID, bytes32 _productName, bytes32 _productSN, bytes32 _productBrand,\r\n    uint256 _productPrice, string memory _mfgLocation) public{\r\n        productItems[productCount] = productItem(productCount, _productSN, _productName, _productBrand,\r\n        _productPrice, \"Available\", block.timestamp, 0, false, _mfgLocation, \"\");\r\n        productMap[_productSN] = productCount;\r\n        productCount++;\r\n        productsManufactured[_productSN] = _manufactuerID;\r\n    }\r\n\r\n\r\n    function viewProductItems () public view returns(uint256[] memory, bytes32[] memory, bytes32[] memory, bytes32[] memory, uint256[] memory, bytes32[] memory) {\r\n        uint256[] memory pids = new uint256[](productCount);\r\n        bytes32[] memory pSNs = new bytes32[](productCount);\r\n        bytes32[] memory pnames = new bytes32[](productCount);\r\n        bytes32[] memory pbrands = new bytes32[](productCount);\r\n        uint256[] memory pprices = new uint256[](productCount);\r\n        bytes32[] memory pstatus = new bytes32[](productCount);\r\n        \r\n        for(uint i=0; i<productCount; i++){\r\n            pids[i] = productItems[i].productId;\r\n            pSNs[i] = productItems[i].productSN;\r\n            pnames[i] = productItems[i].productName;\r\n            pbrands[i] = productItems[i].productBrand;\r\n            pprices[i] = productItems[i].productPrice;\r\n            pstatus[i] = productItems[i].productStatus;\r\n        }\r\n        return(pids, pSNs, pnames, pbrands, pprices, pstatus);\r\n    }\r\n\r\n    //SELL Product\r\n\r\n    function manufacturerSellProduct(bytes32 _productSN, bytes32 _sellerCode) public{\r\n        productsWithSeller[_sellerCode].push(_productSN);\r\n        productsForSale[_productSN] = _sellerCode;\r\n\r\n    }\r\n\r\n    function sellerSellProduct(bytes32 _productSN, bytes32 _consumerCode, string memory _purchaseLocation) public{   \r\n        uint256 j = productMap[_productSN];\r\n\r\n        if(productItems[j].productSN == _productSN && productItems[j].productStatus == \"Available\") {\r\n            productItems[j].productStatus = \"NA\";\r\n            productItems[j].saleDate = block.timestamp;\r\n            productItems[j].purchaseLocation = _purchaseLocation;\r\n            productsWithConsumer[_consumerCode].push(_productSN);\r\n            productsSold[_productSN] = _consumerCode;\r\n        }\r\n    }\r\n\r\n\r\n    function queryProductsList(bytes32 _sellerCode) public view returns(uint256[] memory, bytes32[] memory, bytes32[] memory, bytes32[] memory, uint256[] memory, bytes32[] memory){\r\n        bytes32[] memory productSNs = productsWithSeller[_sellerCode];\r\n        uint256 k=0;\r\n\r\n        uint256[] memory pids = new uint256[](productCount);\r\n        bytes32[] memory pSNs = new bytes32[](productCount);\r\n        bytes32[] memory pnames = new bytes32[](productCount);\r\n        bytes32[] memory pbrands = new bytes32[](productCount);\r\n        uint256[] memory pprices = new uint256[](productCount);\r\n        bytes32[] memory pstatus = new bytes32[](productCount);\r\n\r\n        \r\n        for(uint i=0; i<productCount; i++){\r\n            for(uint j=0; j<productSNs.length; j++){\r\n                if(productItems[i].productSN==productSNs[j]){\r\n                    pids[k] = productItems[i].productId;\r\n                    pSNs[k] = productItems[i].productSN;\r\n                    pnames[k] = productItems[i].productName;\r\n                    pbrands[k] = productItems[i].productBrand;\r\n                    pprices[k] = productItems[i].productPrice;\r\n                    pstatus[k] = productItems[i].productStatus;\r\n                    k++;\r\n                }\r\n            }\r\n        }\r\n        return(pids, pSNs, pnames, pbrands, pprices, pstatus);\r\n    }\r\n\r\n    function querySellersList (bytes32 _manufacturerCode) public view returns(uint256[] memory, bytes32[] memory, bytes32[] memory, bytes32[] memory, uint256[] memory, bytes32[] memory, bytes32[] memory) {\r\n        bytes32[] memory sellerCodes = sellersWithManufacturer[_manufacturerCode];\r\n        uint256 k=0;\r\n        uint256[] memory ids = new uint256[](sellerCount);\r\n        bytes32[] memory snames = new bytes32[](sellerCount);\r\n        bytes32[] memory sbrands = new bytes32[](sellerCount);\r\n        bytes32[] memory scodes = new bytes32[](sellerCount);\r\n        uint256[] memory snums = new uint256[](sellerCount);\r\n        bytes32[] memory smanagers = new bytes32[](sellerCount);\r\n        bytes32[] memory saddress = new bytes32[](sellerCount);\r\n        \r\n        for(uint i=0; i<sellerCount; i++){\r\n            for(uint j=0; j<sellerCodes.length; j++){\r\n                if(sellers[i].sellerCode==sellerCodes[j]){\r\n                    ids[k] = sellers[i].sellerId;\r\n                    snames[k] = sellers[i].sellerName;\r\n                    sbrands[k] = sellers[i].sellerBrand;\r\n                    scodes[k] = sellers[i].sellerCode;\r\n                    snums[k] = sellers[i].sellerNum;\r\n                    smanagers[k] = sellers[i].sellerManager;\r\n                    saddress[k] = sellers[i].sellerAddress;\r\n                    k++;\r\n                    break;\r\n               }\r\n            }\r\n        }\r\n\r\n        return(ids, snames, sbrands, scodes, snums, smanagers, saddress);\r\n    }\r\n\r\n    function getPurchaseHistory(bytes32 _consumerCode) public view returns (bytes32[] memory, bytes32[] memory, bytes32[] memory){\r\n        bytes32[] memory productSNs = productsWithConsumer[_consumerCode];\r\n        bytes32[] memory sellerCodes = new bytes32[](productSNs.length);\r\n        bytes32[] memory manufacturerCodes = new bytes32[](productSNs.length);\r\n        for(uint i=0; i<productSNs.length; i++){\r\n            sellerCodes[i] = productsForSale[productSNs[i]];\r\n            manufacturerCodes[i] = productsManufactured[productSNs[i]];\r\n        }\r\n        return (productSNs, sellerCodes, manufacturerCodes);\r\n    }\r\n\r\n    //Verify and Record Scan\r\n\r\n    function recordScan(bytes32 _productSN, string memory _location) public {\r\n        uint256 j = productMap[_productSN];\r\n        \r\n        // Only record and check logic if product actually exists\r\n        if (productItems[j].productSN == _productSN) {\r\n            productScans[_productSN].push(Scan(block.timestamp, _location));\r\n\r\n            // Logic 1: Suspicious if scanned after sale date\r\n            if (productItems[j].saleDate > 0 && block.timestamp > productItems[j].saleDate + 60) {\r\n                productItems[j].isSuspicious = true;\r\n            }\r\n\r\n            // Logic 2: Suspicious if simultaneous scans in different locations\r\n            uint256 scanCount = productScans[_productSN].length;\r\n            if (scanCount > 1) {\r\n                Scan memory lastScan = productScans[_productSN][scanCount - 2];\r\n                if (block.timestamp - lastScan.timestamp < 1 hours) {\r\n                    if (keccak256(abi.encodePacked(lastScan.location)) != keccak256(abi.encodePacked(_location))) {\r\n                        productItems[j].isSuspicious = true;\r\n                    }\r\n                }\r\n            }\r\n        }\r\n    }\r\n\r\n    function getScanHistory(bytes32 _productSN) public view returns (uint256[] memory, string[] memory) {\r\n        uint256 count = productScans[_productSN].length;\r\n        uint256[] memory timestamps = new uint256[](count);\r\n        string[] memory locations = new string[](count);\r\n\r\n        for (uint i = 0; i < count; i++) {\r\n            timestamps[i] = productScans[_productSN][i].timestamp;\r\n            locations[i] = productScans[_productSN][i].location;\r\n        }\r\n        return (timestamps, locations);\r\n    }\r\n\r\n    function verifyProduct(bytes32 _productSN, bytes32 _consumerCode) public view returns(bool, bool, uint256, bool, bool, string memory, string memory, uint256, uint256){\r\n        uint256 j = productMap[_productSN];\r\n        \r\n        return (\r\n            (productItems[j].productSN == _productSN),\r\n            (productsSold[_productSN] == _consumerCode),\r\n            productScans[_productSN].length,\r\n            productItems[j].isSuspicious,\r\n            (productItems[j].saleDate > 0),\r\n            productItems[j].mfgLocation,\r\n            productItems[j].purchaseLocation,\r\n            productItems[j].mfgDate,\r\n            productItems[j].saleDate\r\n        );\r\n    }\r\n}",
  "sourcePath": "C:\\Users\\luffv\\Downloads\\Fake-Product-Identification-fixed\\contracts\\product.sol",
  "compiler": {
    "name": "solc",
    "version": "0.8.12+commit.f00d7308.Emscripten.clang"
  },
  "schemaVersion": "3.4.16",
  "updatedAt": "2026-06-15T06:55:16.884Z",
  "networkType": "ethereum",
  "devdoc": {
    "kind": "dev",
    "methods": {},
    "version": 1
  },
  "userdoc": {
    "kind": "user",
    "methods": {},
    "version": 1
  }
}